:020000040000fa
:080000000002040000000000f2
:020000040000fa
:10000800aa020000aa020000aa020000aa02000038
:10001800aa020000aa020000aa020000aa02000028
:10002800aa020000aa020000aa020000aa02000018
:10003800aa020000aa020000aa020000aa02000008
:020000040000fa
:020000040000fa
:10040000cf8020000eff20000e01880000000000b9
:10041000000020000000e000020032000001200087
:10042000200288000c000700e08920000100200065
:1004300011000700000020000000e0000200320070
:100440000000020000000000240302000000000081
:100450000040da000000fe004440a900c001200076
:100460000000e0000300320000002000a00188002e
:100470004440a80000000600910188008000780038
:100480000000eb0015003700e280400032a0b4000d
:100490009101ba00e280400032a0b4009102ba009b
:1004a000e280400032a0b4000002eb00472bde00e7
:1004b000f507b200602ce10004003a000059eb009f
:1004c0008301e900fdff3e00040037006128e100e0
:1004d000010032000082eb00040007001101ba00a5
:1004e0000200e000e8ff3a00000006003159ba00bf
:1004f0008301e9000c0032002159ba008301e900b0
:10050000080032000400e00003003a00e2804000ee
:1005100032a0b400f5ff370011d9ba008301e90019
:10052000faff3a008100e800e180400032a0b40008
:1005300000000600000000000000000000000000b5
:1005400000000000000000000000000000000000ab
:0c055000000000000040da000000fe0087
:020000040000fa
:10055c000100000000000000060000000700000081
:10056c0008000000090000000a0000000b00000059
:10057c00000000000100000002000000010000006b
:08058c0000000000280000003f
:020000040000fa
:100594000000fa001021ef001221ef000a21ef0001
:1005a4000621ef008500a9001061a80011e1a80050
:1005b4000080fa00000006000800fa0020079800f6
:1005c40031079800be00900000fa20000088b900ae
:1005d400000178002e0090006000b900000078004f
:1005e40000014100ae00900000fa20000008b800ad
:1005f4000101410082007800008fbe00008fbe0020
:100604000621ef000a21ef001e00be004008de00b4
:1006140000007800700888001e00780060088800d8
:100624000000000021048000001020000080600011
:100634000000e000fbff32008500a9000080fa0002
:10064400000006000c00fa00d1ff0700c822ef00ea
:10065400cc22ef00f00f200000168800e024ef0009
:10066400424f200071158400b0158400020001007f
:10067400424f200071158400e0158400020001003f
:1006840010002000000f780016003700a0002000a2
:1006940001002000c8ff0700101684006301070052
:1006a4000000e00002003200b0158400b801070029
:1006b400f01584005d0107000000e0000200320034
:1006c40010002000404088000016840057010700f5
:1006d4000000e000020032001000200050408800ba
:1006e4001e0fe800400620009e007800808f500016
:1006f400e6ff3400424f200081158400b0158400c9
:1007040002000100504080000000e00003003200bd
:10071400e0692000000001000a28ef00424f200099
:10072400711584009015840002000100100020005f
:100734001007980012003700600420000100200018
:100744009dff070010168400380107000000e00038
:1007540002003200901584008d010700f01584001a
:10076400320107000000e000020032001000200007
:10077400404088001e0090000000e8001007980028
:100784009e00900040062000808f5000eaff340055
:10079400424f20008115840090158400020001005e
:1007a400424f200071158400a0158400020001004e
:1007b400100020002007980012003700400120009c
:1007c400010020007cff07001016840017010700b9
:1007d4000000e00002003200a01584006c01070054
:1007e400f0158400110107000000e000020032004f
:1007f40010002000404088002e0090000000e80017
:1008040020079800ae00900040062000808f500022
:10081400eaff3400424f200081158400a0158400b3
:1008240002000100424f200071158400b0158400bd
:100834000200010010002000300798001800370063
:10084400a0002000010020005bff070010168400b8
:10085400f60007000000e00002003200b01584003a
:100864004b010700f0158400f00007000000e000d1
:10087400020032001000200040408800001684006e
:10088400ea0007000000e00002003200100020002f
:10089400504088003e0090000000e80030079800b7
:1008a400be00900040062000808f5000e4ff34001a
:1008b400424f200081158400e015840002000100ed
:1008c400404080000000e000030032002067200068
:1008d400000001000828ef00424f20007115840039
:1008e400c015840002000100100020004007980099
:1008f4001200370060042000010020002eff0700d2
:1009040010168400c90007000000e0000200320055
:10091400c01584001e01070000168400c3000700f0
:100924000000e00002003200100020005040880067
:100934004e0090000000e80040079800ce009000b0
:1009440040062000808f5000eaff3400424f200010
:1009540081158400c015840002000100424f20006c
:1009640071158400d01584000200010010002000dd
:1009740050079800120037004001200001002000b9
:100984000dff070010168400a80007000000e00017
:1009940002003200d0158400fd0007000016840018
:1009a400a20007000000e000020032001000200056
:1009b400504088005e0090000000e8005007980056
:1009c400de00900040062000808f5000eaff3400d3
:1009d400424f200081158400d015840002000100dc
:1009e4001fff37000400fa00000f78001107980079
:1009f4001e0078006101b900a0ff2f00f1ff2f0055
:100a04000200400083804800920020000300200080
:100a1400820f5000838f580082003e000060010066
:100a240009003700140037001f0037002a00370080
:100a340035003700400037004b00370056003700c0
:100a4400610037006c0037001e0090000040780001
:100a5400614060000080fb00610060004600dd0032
:100a640062168000f1fb2f0081006100010070001c
:100a7400601688006b0037001e009000004078006c
:100a8400614060000080fb00610060004700dd0001
:100a940062168000f1f72f008100610001007000f0
:100aa400601688005f0037001e0090000040780048
:100ab400614060000080fb00610060004800dd00d0
:100ac40062168000f1ef2f008100610001007000c8
:100ad40060168800530037001e0090000040780024
:100ae400614060000080fb00610060004900dd009f
:100af40062168000f1df2f008100610001007000a8
:100b040060168800470037001e00900000407800ff
:100b1400614060000080fb00610060004a00dd006d
:100b240062168000f1bf2f00810061000100700097
:100b3400601688003b0037001e00900000407800db
:100b4400614060000080fb00610060004b00dd003c
:100b540062168000f17f2f008100610001007000a7
:100b6400601688002f0037001e00900000407800b7
:100b7400614060000080fb00610060004c00dd000b
:100b840062168000f1ff2e008100610001007000f8
:100b940060168800230037001e0090000040780093
:100ba400614060000080fb00610060004d00dd00da
:100bb40062168000f1ff2d008100610001007000c9
:100bc40060168800170037001e009000004078006f
:100bd400614060000080fb00610060004e00dd00a9
:100be40062168000f1ff2b0081006100010070009b
:100bf400601688000b0037001e009000004078004b
:100c0400614060000080fb004f00dd006216800040
:100c1400f1ff270081006100010070006016880068
:100c2400000000000080fa00000006000200fa0044
:100c3400000f78001e007800e20f5000160032000a
:100c4400e20f500005003c000000e0000800320004
:100c5400e10f50000b0032001e003700e30f50007c
:100c640012003200e40f5000150032001900370062
:100c74001016800000407800614060000080fb0096
:100c840015003700101680000000d100614060009c
:100c94000080fb0010003700101680004200de00c8
:100ca400614060000080fb000b00370010168000dc
:100cb4004300de00614060000080fb000600370056
:100cc400101680004400de00614060000080fb00dc
:100cd40001003700000037000080fa000000060021
:100ce4000200fa0010002000000f78000d00370009
:100cf40071158400d01584003aff0700401f2000be
:100d0400010020002cfe070081158400d01584000a
:100d140034ff0700401f20000100200026fe0700ca
:100d24001e0fe8001e007800e30f5000f0ff3400af
:100d34000080fa00000006000200fa001000200003
:100d4400000f78000d0037007115840090158400a1
:100d540024ff0700401f20000100200016fe0700aa
:100d640081158400901584001eff0700401f200099
:100d74000100200010fe07001e0fe8001e0078008e
:100d8400e30f5000f0ff34000080fa00000006007a
:100d94000200fa00000f78008015840080007800bb
:100da4001e0078000fff070071158400e015840011
:100db4000cff070071158400b015840009ff0700bb
:100dc400401f200001002000fbfd07008115840066
:100dd400e015840003ff070081158400b01584002a
:100de40000ff0700401f200001002000f2fd070063
:100df40071158400e0158400fafe07007115840063
:100e0400b0158400f7fe0700401f200001002000f9
:100e1400e9fd070081158400e0158400f1fe070058
:100e240081158400b0158400eefe0700e27f2000e7
:100e3400301684003100200002000100400120002f
:100e440001002000dcfd070071158400e01584001a
:100e5400e4fe070071158400b0158400e1fe07006c
:100e6400401f200001002000d3fd070081158400ed
:100e7400e0158400dbfe070081158400b0158400b2
:100e8400d8fe0700401f200001002000cafd070013
:100e940071158400e0158400d2fe070071158400ea
:100ea400b0158400cffe0700401f20000100200081
:100eb400c1fd070081158400e0158400c9fe070008
:100ec40081158400b0158400c6fe0700401f200071
:100ed40001002000b8fd070071158400e0158400ae
:100ee400c0fe070071158400b0158400bdfe070024
:100ef400401f200001002000affd07008115840081
:100f0400e0158400b7fe070081158400b015840045
:100f1400b4fe0700e27f2000201684003100200088
:100f2400020001004001200001002000a2fd070092
:100f340071158400e0158400aafe07007115840071
:100f4400b0158400a7fe0700401f20000100200008
:100f540099fd070081158400e0158400a1fe0700b7
:100f640081158400b01584009efe0700401f2000f8
:100f74000100200090fd070071158400e015840035
:100f840098fe070071158400b015840095fe0700d3
:100f9400401f20000100200087fd07008115840008
:100fa400e01584008ffe070081158400b0158400cd
:100fb4008cfe070070158400800078001e00780005
:100fc40088fe0700b01584009e007800808f5000d2
:100fd40004003c0071158400e015840081fe0700c4
:100fe4000300370071158400b01584007dfe0700ee
:100ff4000080fa00000006000a00fa00300798009a
:101004004107980030168400be009000808f500085
:1010140023003a0010002000100798001b0037003e
:101024000000eb00000f78001200370071158400f7
:101034001e007800000140000080200000004100f4
:101044001000780067fe070040168400cf80de00a1
:1010540059fd0700811584001e007800000140003e
:101064000080200000004100100078005dfe0700b1
:101074001e0fe8001e007800e30f5000ebff340061
:101084001e0090000000e800100798009e009000e9
:101094004e009000808f5000e1ff340024003700a0
:1010a40010002000100798001d00370030002000b9
:1010b4002007980014003700711584002e0090005a
:1010c4000001400000802000000041001000780072
:1010d40044fe070040168400cf80de0036fd070082
:1010e400811584002e009000000140000080200043
:1010f40000004100100078003afe07002e00900026
:101104000000e900200798002e0090000000e00095
:10111400e9ff3d001e0090000000e8001007980061
:101124009e0090004e009000808f5000dfff34003e
:081134000080fa000000060033
:020000040000fa
:10113c000808000004000000000000000008000087
:10114c0008000000020000000c000f00000d000061
:08115c000e000000000000007d
:020000040000fa
:0200000401f009
:04000c0058ff000099
:020000040000fa
:0200000401f009
:04001000fbff0000f2
:020000040000fa
:0200000401f009
:040014005fff00008a
:020000040000fa
:0200000401f009
:04001c00ffff0000e2
:020000040000fa
:0200000401f009
:040020007fff00005e
:00000001FF
